:020000040800F2
:1000000018600020790200080F410008030B000867
:100010000D410008F5080008A14A00080000000092
:10002000000000000000000000000000E1010008E6
:100030000D09000800000000250200082543000803
:10004000930200089302000893020008930200083C
:10005000930200089302000893020008930200082C
:10006000930200089302000893020008930200081C
:10007000930200089302000893020008930200080C
:1000800093020008930200089302000893020008FC
:1000900093020008930200089302000893020008EC
:1000A00093020008930200089302000893020008DC
:1000B0009302000889430008930200089302000895
:1000C00093020008930200089302000893020008BC
:1000D000930200089D4800089302000801490008A7
:1000E000930200089302000893020008930200089C
:1000F000930200089302000893020008930200088C
:10010000930200089302000893020008930200087B
:10011000930200089302000893020008930200086B
:10012000930200089302000893020008930200085B
:1001300000F002F800F045F80AA090E8000C8244B4
:100140008344AAF10107DA4501D100F03AF8AFF291
:10015000090EBAE80F0013F0010F18BFFB1A43F0A5
:10016000010318475489000074890000103A24BF25
:1001700078C878C1FAD8520724BF30C830C144BF0C
:1001800004680C607047000000230024002500264E
:10019000103A28BF78C1FBD8520728BF30C148BFEA
:1001A0000B607047642900F0BF80782900F023813C
:1001B000732900F0FF82002070471FB51FBD10B5E6
:1001C00010BD00F065FB1146FFF7F7FF04F0B8FF24
:1001D00000F083FB03B4FFF7F2FF03BC04F068FCFC
:1001E000224B19680868B0E8F00F80F30988BFF364
:1001F0006F8F4FF0000080F311884EF00D0E7047A6
:100200000000000006480068006880F3088862B6B5
:1002100061B6BFF34F8FBFF36F8F00DF00BF00BF2A
:1002200008ED00E0EFF30980BFF36F8F0F4B1A6802
:1002300020E9F00F106008B54FF0500080F31188EE
:10024000BFF34F8FBFF36F8F05F0B0FF4FF000008B
:1002500080F31188BDE8084019680868B0E8F00F1D
:1002600080F30988BFF36F8F704700BF64000020E0
:10027000EFF30580704700000948804709480047B0
:10028000FEE7FEE7FEE7FEE7FEE7FEE7FEE7FEE746
:10029000FEE7FEE704480549054A064B70470000A3
:1002A0003943000831010008185A00201860002066
:1002B000185C0020185C0020704700000FB404494F
:1002C00010B503AA029800F079FA10BC5DF814FB8F
:1002D0004800002070B50C460546012A05D0287854
:1002E000800600D5EA69002302E0012305E05B1CDB
:1002F000934202D2E05C0028F9D1A869E618C01A3E
:10030000A861286A184428622846AFF3008004E0F8
:10031000D5E9012114F8010B9047B442F8D32846DF
:10032000AFF3008070BD00002DE9F04106460024C7
:1003300010687529314616A510D0AFF3008000284B
:1003400002DA404213A507E031688A0701D512A5F9
:1003500002E0490704D511A5012401E0AFF30080B4
:1003600000210A2206F1240709E0B0FBF2FCB0FBF1
:10037000F2F302FB1C00303078541846491C002868
:10038000F3D123462A463046BDE8F04100F08EB94D
:10039000000000002D0000002B00000020000000E5
:1003A000F0B40D460188090502D5214C7C4402E0D9
:1003B0001F4C7C440E34002100F1240608E002F0BA
:1003C0000F071209E75D42EA03721B097754491CC3
:1003D00052EA0307F3D102780023120704D5702DE7
:1003E00006D009B1022311342246F0BC00F05EB9F8
:1003F00001231034F8E770B504460D462146106815
:10040000AFF30080024629462046BDE87040002335
:10041000C6E7D21D22F00703D3E90023C0E7036833
:10042000126843F0200303600823C3610023B7E789
:10043000CC8600002DE9F05F894604464FF0000AA3
:10044000DFF874B1FB44C0F820A02046E16888477B
:10045000002874D0252806D0D4E901219047206ACD
:10046000401C2062F1E700265F462046E16888478D
:100470002028054607DB312D05D2781910F8200C0D
:1004800008B10643F1E7B00701D526F00406C4F829
:100490001CA00027C4F818A02A2D09D0284604F073
:1004A00000FB38B304EB8708303DC8F8185019E05A
:1004B00059F8041B204604EB87029161E1688847E4
:1004C000012F054618D1E069002820DA26F0200621
:1004D0001DE0D8F8180000EB800005EB4000303834
:1004E000C8F818002046E1688847054604F0D9FAA4
:1004F0000028EED1012F0AD02E2D08D12046E16828
:1005000088477F1C0546022F46F02006C4DBA06901
:10051000002803DA404246F00106A061F00701D04E
:1005200026F010066C2D0BD0682D09D04C2D39D03B
:100530006A2D35D0742D35D07A2D33D016E038E0C1
:10054000E1682F4620468847B842054609D16C2FFE
:1005500026D04FF48060E168064320468847054670
:1005600004E06C2F1AD04FF4807006430DB3A5F150
:100570004100192802D8203546F400664A4629462B
:10058000204626604E46FFF70DFE80B101280BD0B5
:10059000F61D26F0070000F1080956E74020E4E7C1
:1005A0008020D8E70020D6E706F104094DE7284669
:1005B00052E7206ABDE8F09F5C860000032A40F203
:1005C000308010F0030C00F0158011F8013BBCF1F5
:1005D000020F624498BF11F801CB00F8013B38BF0D
:1005E00011F8013BA2F1040298BF00F801CB38BF1B
:1005F00000F8013B11F0030300F0F280083AC0F06C
:10060000088051F8043B083A51F804CBA0E80810E0
:10061000F5E7121D5CBF51F8043B40F8043BAFF313
:100620000080D20724BF11F8013B11F801CB48BF6D
:1006300011F8012B24BF00F8013B00F801CB48BFA3
:1006400000F8012B704702F0FF0343EA032242EA5D
:10065000024200F0F9B84FF0000200B5134694468C
:100660009646203922BFA0E80C50A0E80C50B1F10A
:100670002001BFF4F7AF090728BFA0E80C5048BF1E
:100680000CC05DF804EB890028BF40F8042B08BFBC
:10069000704748BF20F8022B11F0804F18BF00F8B8
:1006A000012B704770477047704770472DE9F0473E
:1006B0000D4699469246044600F1240801688806D2
:1006C00004D5E06921F01001216000E00120A8427A
:1006D00001DD471B00E00027A1697A1902EB090040
:1006E000081AA0612078C00602D42046AFF300802B
:1006F000002608E0D4E901211AF806009047206A94
:10070000401C761C20624E45F4DB2078C0060AD5DA
:100710002046AFF3008006E0D4E901213020904765
:10072000206A401C2062381EA7F10107F4DC07E0B4
:10073000D4E9012118F805009047206A401C206286
:10074000281EA5F10105F3DC2046AFF300802078D8
:10075000000602D50220BDE8F0870120FBE700007B
:1007600001694A1C02610878704700B58FB0CDE975
:1007700001310021059105497944CDE90310114665
:100780006846FFF757FE0FB000BD0000E5FFFFFF12
:1007900010B5436913B1AFF3008001E0FFF79AFD94
:1007A000012010BD127800F124010A7000224A7065
:1007B0000122EDE711684FF0FF32E9E7074B70B512
:1007C0000D467B44FFF7D1FF0446284600F05CF855
:1007D00010B14FF0FF3070BD204670BD6347000080
:1007E00010B5203AC0F00B80B1E81850203AA0E8CC
:1007F0001850B1E81850A0E81850BFF4F5AF5FEA00
:10080000027C24BFB1E81850A0E8185044BF18C9B2
:1008100018C0BDE810405FEA827C24BF51F8043B59
:1008200040F8043B08BF7047D20728BF31F8023BAD
:1008300048BF11F8012B28BF20F8023B48BF00F841
:10084000012B70474FF000020429C0F0128010F015
:10085000030C3FF402AFCCF1040CBCF1020F18BF43
:1008600000F8012BA8BF20F8022BA1EB0C01FFF729
:10087000F4BE5FEAC17C24BF00F8012B00F8012B15
:1008800048BF00F8012B7047007B00F080007047E4
:10089000754600F02BF8AE4605006946534620F039
:1008A0000700854618B020B5FFF7F4FCBDE82040EE
:1008B0004FF000064FF000074FF000084FF0000B1C
:1008C00021F00701AC46ACE8C009ACE8C009ACE8CF
:1008D000C009ACE8C0098D46704710B50446AFF3B7
:1008E00000802046BDE81040FFF774BC0048704708
:1008F000B4590020FEE70000034800220260426075
:100900004721312003F05ABD180000207047000035
:100910008000A0F1C0400029016802D041F001012F
:1009200001E0024A1140016070470000FEFF0F0025
:1009300010B5D0E901121143D0E903231A43114342
:100940004269114382691143C2691143026A11432A
:10095000426A1143826A1143C26A1143026B114316
:1009600002689200A2F1C04211608168082907D193
:1009700001688900A1F1C0410A6842F040020A60A2
:10098000416BD1E9002342EA03128B688C891B0278
:1009900043EA04431A430B8A42EA03520B7D8969F6
:1009A00042EA03620A4301688900A1F1C0414A603A
:1009B000C16AB1F5804F08D000686FF070418000C7
:1009C000A0F1C040C0F8041110BD816BD1E9002333
:1009D00042EA03128B680C8A1B0243EA04531A434F
:1009E0000B7D896942EA036200680A438000A0F136
:1009F000C040C0F8042110BDF0B5CC78002204F04E
:100A00000F03E40601D58C7823430C784FF00F0CCC
:100A100014F0FF0F4FF0010E1BD005680E880EFA80
:100A200002F42640A64210D196000CFA06F725EAF9
:100A3000070703FA06F5CE783D43282E02D0482E4C
:100A400002D002E0446100E00461521C082AE5D3B0
:100A500005600A88FF2A1CD94468002202F10806B2
:100A60000EFA06F50E882E40AE420ED196000CFA14
:100A700006F7BC4303FA06F7CE783C43282E00D194
:100A80004561CE78482E00D10561521C082AE5D375
:100A90004460F0BDF0B5144C002801DAE36900E0D1
:100AA0006368450D2E0185B2C0F30157B540C0F310
:100AB0000342032F05D0C6020AD503269640B3434E
:100AC00007E023F07062636823F07063636002E004
:100AD000AB4343F0706201B12A43002801DAE261BE
:100AE000F0BD6260F0BD0000000001400246002041
:100AF00092680A4200D0012070474161704701614D
:100B00007047FEE72DE9F043174F0646002438886A
:100B10007D884543B888A0F5D041043902D1B87921
:100B2000012807D00021084603F066F903F0DCFA3B
:100B30000E4815E00020B8714FF02A09A7F80A9076
:100B40004FF02B08A7F80C80014603F055F901205F
:100B5000B871A7F80A80A7F80C90E7E70680641C34
:100B6000AC42FBD3BDE8F083E00000200008006C3D
:100B70002DE9F04F4A492A232B24898845F2105A3F
:100B80004FF4305B4FF4285E4FF448754FF0F00C93
:100B900049F241394FF4A07745F210364FF4F07224
:100BA00080B13F484FF00108494580F80680078032
:100BB000A0F802C001D0B1423ED12C25058143816D
:100BC000848157E036484FF00008494580F8068098
:100BD000A0F800C0478006D0A1F5D04CBCF1040CB1
:100BE00001D0B1420CD12C2505814381A1F5D04320
:100BF0008481043B01D0B14244D10780428041E06E
:100C0000514507D1A0F808B0A0F80AE04FF42C51E4
:100C100081810EE0A1F5C856633E06D022210181F4
:100C200020214181212181812CE02C2101814481DD
:100C300083810280458025E0A1F5D04CBCF1040CF5
:100C400009D051450BD1A0F808B0A0F80AE04FF444
:100C50002C53838121E02C250581448109E0A1F5F5
:100C6000C85CBCF1630C12D0222303812123438191
:100C700020238381A1F5D043043B01D0B14201D1AF
:100C800002804780BDE8F04F002002F0E1BF4FF046
:100C90002C0CA0F808C04381848105804280E9E7DC
:100CA000E00000202DE9F04FDFF80C81934642462A
:100CB0000B46B8F804500C0ADFF800A19189060A27
:100CC0005289A5F513470AF10209413F18D0A5F54D
:100CD000A647103F14D0B7F500771CD04746A5F5BE
:100CE000C85CBE793F883F1A7F1EBCF1630C27D0D9
:100CF000A5F5D04CBCF1040C3AD0012E4AD04AE004
:100D0000AAF800204A46A9F80060C0B2A9F800007D
:100D1000AAF800103AE0AAF80020A9F80060521CD6
:100D2000AAF80020C0B2A9F80000AAF80010A9F89B
:100D30000040491CAAF80010D8B2A9F8000033E01E
:100D400006B9B8B2AAF80020050A4A46A9F8005028
:100D5000C7B2A9F80070A9F80050C0B2A9F8000005
:100D6000AAF80010A9F80040D8B2A9F800000DE0D8
:100D7000012E00D1B8B2AAF80020050A4A46A9F807
:100D80000050C0B2A9F80000AAF800101480D8B230
:100D9000108009E0B8B20146104603F0AFF9B8F888
:100DA0000C00194603F0AAF9B8F80810AAF80010C8
:100DB000A9F800B0BDE8F08FE0000020FE07006C4D
:100DC0002DE9F04F01210E029FB0304603F0DCF90F
:100DD00001214FF4B47003F0EFF90127ADF83C7036
:100DE0004FF010088DF83F8003248DF83E400FA986
:100DF000FE48FFF701FE4CF23370ADF83C001825B9
:100E00008DF83F508DF83E400FA9F948FFF7F4FDEB
:100E10004FF68070ADF83C008DF83F508DF83E40A5
:100E20000FA9F448FFF7E8FD41F20100ADF83C00DE
:100E30008DF83F508DF83E400FA9EF48FFF7DCFDDD
:100E400000200F21CDE918011A901B901C901D90D5
:100E50001090CDE91104CDE91607149006211590E4
:100E6000CDE90010CDE90208139004903101CDE9DD
:100E700008010690059007908900CDE90A010C90C1
:100E800017A80D9010A80E906846FFF751FD01219C
:100E90000620FFF73DFD322003F066FF002002F040
:100EA000ADFED64DD64C49F24139A88046F6040A2B
:100EB00045F2103B45F210574FF6FF78FF2804D358
:100EC000404502D0B0F5134F70D1D320208002F0FE
:100ED0008BFEA88002F088FEA88002F085FE08EA5A
:100EE00000204146A88002F07FFEAA881043A88017
:100EF00048455BD0BF20208002F076FEA88002F03B
:100F000073FEA88002F070FEA88002F06DFE01EA78
:100F10000020A88002F068FEAA881043A8805045EF
:100F200044D0D420208002F05FFEA88002F05CFE56
:100F3000A88002F059FE01EA0020A88002F054FEC9
:100F4000AA881043A880584530D04FF45A402080DA
:100F500002F04AFEA8804FF45B40208002F044FE7D
:100F600001EA0020A8804FF45C40208002F03CFEA3
:100F7000AA881043A880B0F5004F7DD0B84215D0A4
:100F8000A120208002F030FEA88002F02DFE01EAB0
:100F90000020A88002F028FEA9880843A0F5AE41F1
:100FA000A880613902D141F66310A880A98895A074
:100FB000FFF784F9A888924DAD1C48457ED1CF201B
:100FC000208000202880C120288030202880ED202B
:100FD00020806420288003202880122028808120FF
:100FE0002880E820208085202880102028807A20F2
:100FF0002880CB202080392028802C2028800020A9
:1010000028803420288002202880F720208020207B
:101010002880EA202080002028802880C02020808E
:101020001B202880C120208001202880C52020800E
:10103000302028802880C7202080B72028803620B4
:101040002080482028803A20208055202880B12008
:101050002080002028801A202880B62020800A20A6
:101060002880A2202880F2202080002028802620AE
:1010700020800120288000E051E0E02020800F2027
:1010800028802A20288028202880082028800E20D8
:1010900028800820288054202880A92028804320E8
:1010A00028800A2028800F2028800020288028807F
:1010B00028802880E1202080002000E031E0288086
:1010C00015202880172028800720288011202880BC
:1010D000062028802B202880562028803C2028802D
:1010E00005202880102028800F2028803F2028807D
:1010F00028800F2028802B20208000202880288016
:10110000012028803F2028802A202080002028805D
:1011100028802880EF2028801120208084E0AF8064
:1011200044E7504576D111202080142003F01CFEA6
:10113000D020208007202880422028801D20288061
:10114000D1202080002028801A2028800920288093
:10115000D22020800120288022202880C0202080CA
:10116000102028803B202880002028800220288012
:1011700011202880C520208003202880C8202080BE
:1011800000202880252028802120288005202880F4
:10119000002028800A20288065202880252028809B
:1011A00077202880502028800F2028800020288049
:1011B000F820208001202880FE2020800020288028
:1011C00002202880202020803620208008202880AF
:1011D0003A202080552028802B2020800020288045
:1011E0002880012028803F20288014E0000C014046
:1011F000001401400018014000200140E0000020E0
:10120000FE07006C204C43442049443A25780D0ADF
:10121000000000000EE02A20208000202880288086
:1012200001202880DF202880782003F09DFD2920E0
:1012300001F02DBC58457DD1ED2020800120288073
:10124000FE202880EE202080DE202880212028809B
:10125000F120208001202880DF202080102028809D
:10126000C42020808F202880C62020800020288055
:10127000E220288028802880BF202080AA20288083
:10128000B02020800D202880002028800D2028807C
:101290000020288011202880002028801920288004
:1012A0000020288021202880002028802D202880D0
:1012B000002028803D202880002028805D20288074
:1012C000002028805D20288000202880B1202080F8
:1012D00080202880002028808B20288000202880E3
:1012E0009620288000202880B2202080002028809E
:1012F00028800220288000202880032028800020C9
:101300002880B32020800020288028802880288002
:10131000288028802880288028802880288028808D
:10132000288028802880288028802880288028807D
:10133000288000E0FEE3288028802880B4202080D8
:101340008B2028800020288096202880002028805C
:10135000A120288000202880B5202080022028801D
:101360000020288003202880002028800420288056
:1013700000202880B6202080002028802880B720E8
:1013800020800020288028803F202880002028807E
:101390005E2028800020288064202880002028806B
:1013A0008C20288000202880AC20288000202880E5
:1013B000DC202880002028807020288000202880C1
:1013C0009020288000202880EB2028800020288082
:1013D000DC20288000202880B82020800020288061
:1013E0002880288028802880288028802880BA208B
:1013F0002080242028800020288028802880C12068
:101400002080202028800020288054202880002050
:101410002880FF20288000202880C22020800A20E9
:101420002880002028800420288000202880C320D5
:1014300020803C202880002028803A20288000201E
:10144000288039202880002028803720288000200C
:1014500028803C20288000202880362028800020FA
:10146000288032202880002028802F2028800020FB
:1014700028802C20288000202880292028800020F7
:1014800028802620288000202880242028800020F2
:1014900028802420288000202880232028800020E5
:1014A00028803C20288000202880362028800020AA
:1014B000288032202880002028802F2028800020AB
:1014C00028802C20288000202880292028800020A7
:1014D00028802620288000202880242028800020A2
:1014E0002880242028800020288023202880002095
:1014F0002880C420208062202880002028800520A9
:101500002880002028808420288000202880F02047
:101510002880002028801820288000202880A420EF
:101520002880002028801820288000202880502033
:101530002880002028800C20288000202880172068
:101540002880002028809520288000202880F320F3
:10155000288000202880E620288000202880C520C0
:1015600020803220288000202880442028800020ED
:101570002880652028800020288076202880002070
:1015800028808820288000202880C62020802020D5
:101590002880002028801720288000202880012013
:1015A000288000202880C7202080002028802880D4
:1015B00028802880C820208000202880288028803B
:1015C0002880C9202080002028802880288028802A
:1015D00028802880288028802880288028802880CB
:1015E0002880288028802880E020208016202880DD
:1015F000002028801C20288000202880212028808E
:10160000002028803620288000202880462028803E
:1016100000202880522028800020288064202880F4
:10162000002028807A202880002028808B20288095
:10163000002028809920288000202880A820288049
:1016400000202880B920288000202880C4202880FD
:1016500000202880CA20288000202880D2202880CE
:1016600000202880D920288000202880E0202880A1
:1016700000202880F320288000202880E12020807E
:1016800016202880002028801C2028800020288008
:1016900022202880002028803620288000202880D2
:1016A0004520288000202880522028800020288083
:1016B00064202880002028807A202880002028802C
:1016C0008B202880002028809920288000202880D6
:1016D000A820288000202880B92028800020288089
:1016E000C420288000202880CA202880002028804C
:1016F000D220288000202880D82028800020288020
:10170000E020288000202880F320288000202880E6
:10171000E220208005202880002028800B202880BF
:10172000002028801B20288000202880342028804A
:101730000020288044202880002028804F202880F6
:10174000002028806120288000202880792028809F
:10175000002028808820288000202880972028804A
:1017600000202880A620288000202880B7202880FC
:1017700000202880C220288000202880C7202880C0
:1017800000202880D120288000202880D620288092
:1017900000202880DD20288000202880F320288059
:1017A00000202880E3202080052028800020288039
:1017B0000A202880002028801C20288000202880E3
:1017C0003320288000202880442028800020288082
:1017D0005020288000202880622028800020288037
:1017E00078202880002028808820288000202880D9
:1017F0009720288000202880A6202880002028808C
:10180000B720288000202880C2202880002028803F
:10181000C720288000202880D12028800020288010
:10182000D520288000202880DD20288000202880E6
:10183000F320288000202880E420208001202880B8
:101840000020288001202880002028800220288075
:10185000002028802A202880002028803C20288002
:10186000002028804B202880002028805D202880B0
:101870000020288074202880002028808420288050
:10188000002028809320288000202880A220288003
:1018900000202880B320288000202880BE202880B7
:1018A00000202880C420288000202880CD20288087
:1018B00000202880D320288000202880DD20288058
:1018C00000202880F320288000202880E520208028
:1018D000002028802880288028800220288000205E
:1018E000288029202880002028803C202880002073
:1018F00028804B202880002028805D202880002020
:1019000028807420288000202880842028800020BF
:1019100028809320288000202880A2202880002072
:101920002880B320288000202880BE202880002026
:101930002880C420288000202880CD2028800020F6
:101940002880D320288000202880DC2028800020C8
:101950002880F320288000202880E6202080112085
:1019600028800020288034202880002028805620CD
:10197000288000202880762028800020288077205A
:101980002880002028806620288000202880882049
:101990002880002028809920288000202880BB20D3
:1019A0002880002028809920288000202880662018
:1019B000288000202880552028800020288055205D
:1019C000288000202880452028800020288043206F
:1019D0002880002028804420288000202880E720BC
:1019E0002080322028800020288055202880002058
:1019F00028807620288000202880662028800020EB
:101A000028806720288000202880672028800020E8
:101A10002880872028800020288099202880002086
:101A20002880BB2028800020288099202880002042
:101A300028807720288000202880442028800020CB
:101A400028805620288000202880232028800020FD
:101A500028803320288000202880452028800020EE
:101A60002880E82020800020288028809920288055
:101A70000020288087202880002028808820288037
:101A80000020288077202880002028806620288059
:101A9000002028808820288000202880AA202880F4
:101AA00000202880BB2028800020288099202880C2
:101AB000002028806620288000202880552028804B
:101AC000002028805520288000202880442028805D
:101AD000002028804420288000202880552028804D
:101AE00000202880E9202080AA202880002028804B
:101AF000288028802080AA202880CF2020800020D5
:101B00002880288028802880288028802880288095
:101B10002880288028802880288028802880288085
:101B20002880F0202080002028805020288000205D
:101B3000288000E02CE028802880F32020800020EE
:101B40002880F92020800620288010202880292045
:101B50002880002028803A202080552028801120CD
:101B60002080642003F000F9292020803520208087
:101B70000020288051202080FF20288053202080B2
:101B80002C20288055202080822028802C20FCE3D7
:101B9000B8427DD14FF470435521184602F0AEFA99
:101BA0004FF20105AA21284602F0A8FA6E1C522124
:101BB000304602F0A3FAAF1C0821384602F09EFA24
:101BC0004FF204090121484602F098FA0D214FF422
:101BD000304002F093FA0D214BF2010002F08EFA30
:101BE0000D214BF2020002F089FA4FF4364A3421FB
:101BF000504602F083FA34214BF2016002F07EFA83
:101C000034214BF2026002F079FA4FF4314B0D218E
:101C1000584602F073FA0D214BF2011002F06EFAF1
:101C20000D214BF2021002F069FA34214FF43740D3
:101C300002F064FA34214BF2017002F05FFA3421B1
:101C40004BF2027002F05AFA00214FF4324002F0D7
:101C500055FA00214BF2012002F050FA00214BF21C
:101C6000022002F04BFA24214FF4384002F046FAE9
:101C700024214BF6010002F041FA24214BF6020028
:101C800002F03CFA01214FF43F4002F037FA00E045
:101C9000FEE30F214FF4334002F030FA0F214BF2F4
:101CA000013002F02BFA0F214BF2023002F026FA3B
:101CB00034214FF4394002F021FA34214BF601105F
:101CC00002F01CFA34214BF6021002F017FA082138
:101CD0004FF4354002F012FA08214BF2015002F0A5
:101CE0000DFA08214BF2025002F008FA03214FF4DA
:101CF000424002F003FA24214FF43A4002F0FEF988
:101D000024214BF6012002F0F9F924214BF60220A0
:101D100002F0F4F900214FF43C4002F0EFF9782191
:101D20004BF6014002F0EAF900214BF6024002F0C6
:101D3000E5F900214FF43D4002F0E0F978214BF63F
:101D4000015002F0DBF900214BF6025002F0D6F907
:101D500000214FF43E4002F0D1F964214BF60160BE
:101D600002F0CCF900214FF4514002F0C7F93321C1
:101D70004DF2011002F0C2F900214DF2021002F002
:101D8000BDF934214DF2031002F0B8F900214DF2F3
:101D9000041002F0B3F93A214DF2051002F0AEF949
:101DA00000214DF2061002F0A9F94A214DF2071068
:101DB00002F0A4F900214DF2081002F09FF95C2115
:101DC0004DF2091002F09AF900214DF20A1002F0CA
:101DD00095F981214DF20B1002F090F900214DF29E
:101DE0000C1002F08BF9A6214DF20D1002F086F9CD
:101DF00000214DF20E1002F081F9E5214DF20F1095
:101E000002F07CF901214DF2101002F077F9132154
:101E10004DF2111002F072F901214DF2121002F090
:101E20006DF954214DF2131002F068F901214DF2C1
:101E3000141002F063F982214DF2151002F05EF9E0
:101E400001214DF2161002F059F9CA214DF2171076
:101E500002F054F902214DF2181002F04FF900215E
:101E60004DF2191002F04AF902214DF21A1002F057
:101E700045F901214DF21B1002F040F902214DF20B
:101E80001C1002F03BF934214DF21D1002F036F91E
:101E900002214DF21E1002F031F967214DF21F10A0
:101EA00002F02CF902214DF2201002F027F98421D2
:101EB0004DF2211002F022F902214DF2221002F01F
:101EC0001DF9A4214DF2231002F018F902214DF260
:101ED000241002F013F9B7214DF2251002F00EF98B
:101EE00002214DF2261002F009F9CF214DF2271000
:101EF00002F004F902214DF2281002F0FFF8DE2171
:101F00004DF2291002F0FAF802214DF22A1002F0E7
:101F1000F5F8F2214DF22B1002F0F0F802214DF20B
:101F20002C1002F0EBF8FE214DF22D1002F0E6F835
:101F300003214DF22E1002F0E1F810214DF22F1086
:101F400002F0DCF803214DF2301002F0D7F8332113
:101F50004DF2311002F0D2F803214DF2321002F0AE
:101F6000CDF86D214DF2331002F0C8F800214FF486
:101F7000524002F0C3F833214DF2012002F0BEF8C6
:101F800000214DF2022002F0B9F834214DF2032075
:101F900002F0B4F800214DF2042002F0AFF83A212B
:101FA0004DF2052002F0AAF800214DF2062002F0C1
:101FB000A5F84A214DF2072002F0A0F800214DF2C9
:101FC000082002F09BF85C214DF2092002F096F8FF
:101FD00000214DF20A2002F091F881214DF20B20F0
:101FE00002F08CF800214DF20C2002F087F8A621B7
:101FF0004DF20D2002F082F800214DF20E2002F089
:102000007DF8E5214DF20F2002F078F801214DF224
:10201000102002F073F813214DF2112002F06EF837
:1020200001214DF2122002F069F854214DF21320E3
:1020300002F064F801214DF2142002F05FF88221D1
:102040004DF2152002F05AF801214DF2162002F04F
:1020500055F8CA214DF2172002F050F802214DF236
:10206000182002F04BF800214DF2192002F046F83A
:1020700002214DF21A2002F041F801214DF21B20FD
:1020800002F03CF802214DF21C2002F037F8342116
:102090004DF21D2002F032F802214DF21E2002F016
:1020A0002DF867214DF21F2002F028F802214DF291
:1020B000202002F023F884214DF2212002F01EF8A6
:1020C00002214DF2222002F019F8A4214DF2232022
:1020D00002F014F802214DF2242002F00FF8B7218B
:1020E0004DF2252002F00AF802214DF2262002F0DE
:1020F00005F8CF214DF2272002F000F802214DF221
:10210000282001F0FBFFDE214DF2292001F0F6FF2F
:1021100002214DF22A2001F0F1FFF2214DF22B2095
:1021200001F0ECFF02214DF22C2001F0E7FFFE212F
:102130004DF22D2001F0E2FF03214DF22E2001F09F
:10214000DDFF10214DF22F2001F0D8FF03214DF2C9
:10215000302001F0D3FF33214DF2312001F0CEFFCA
:1021600003214DF2322001F0C9FF6D214DF23320E1
:1021700001F0C4FF00214FF4534001F0BFFF3321B1
:102180004DF2013001F0BAFF00214DF2023001F0B2
:10219000B5FF34214DF2033001F0B0FF00214DF2C4
:1021A000043001F0ABFF3A214DF2053001F0A6FFFB
:1021B00000214DF2063001F0A1FF4A214DF2073017
:1021C00001F09CFF00214DF2083001F097FF5C21E7
:1021D0004DF2093001F092FF00214DF20A3001F07A
:1021E0008DFF81214DF20B3001F088FF00214DF26F
:1021F0000C3001F083FFA6214DF20D3001F07EFF7F
:1022000000214DF20E3001F079FFE5214DF20F3043
:1022100001F074FF01214DF2103001F06FFF132126
:102220004DF2113001F06AFF01214DF2123001F040
:1022300065FF54214DF2133001F060FF01214DF292
:10224000143001F05BFF82214DF2153001F056FF92
:1022500001214DF2163001F051FFCA214DF2173025
:1022600001F04CFF02214DF2183001F047FF002130
:102270004DF2193001F042FF02214DF21A3001F007
:102280003DFF01214DF21B3001F038FF02214DF2DC
:102290001C3001F033FF34214DF21D3001F02EFFD0
:1022A00002214DF21E3001F029FF67214DF21F304F
:1022B00001F024FF02214DF2203001F01FFF8421A4
:1022C0004DF2213001F01AFF02214DF2223001F0CF
:1022D00015FFA4214DF2233001F010FF02214DF231
:1022E000243001F00BFFB7214DF2253001F006FF3D
:1022F00002214DF2263001F001FFCF214DF22730AF
:1023000001F0FCFE02214DF2283001F0F7FEDE2143
:102310004DF2293001F0F2FE02214DF22A3001F097
:10232000EDFEF2214DF22B3001F0E8FE02214DF2DC
:102330002C3001F0E3FEFE214DF22D3001F0DEFEE7
:1023400003214DF22E3001F0D9FE10214DF22F3035
:1023500001F0D4FE03214DF2303001F0CFFE3321E5
:102360004DF2313001F0CAFE03214DF2323001F05E
:10237000C5FE6D214DF2333001F0C0FE00214FF457
:10238000544001F0BBFE332100E080E34DF20140F8
:1023900001F0B4FE00214DF2024001F0AFFE342105
:1023A0004DF2034001F0AAFE00214DF2044001F07D
:1023B000A5FE3A214DF2054001F0A0FE00214DF2AC
:1023C000064001F09BFE4A214DF2074001F096FEC7
:1023D00000214DF2084001F091FE5C214DF20940D0
:1023E00001F08CFE00214DF20A4001F087FE8121B0
:1023F0004DF20B4001F082FE00214DF20C4001F045
:102400007DFEA6214DF20D4001F078FE00214DF237
:102410000E4001F073FEE5214DF20F4001F06EFE1B
:1024200001214DF2104001F069FE13214DF21140DF
:1024300001F064FE01214DF2124001F05FFE5421D3
:102440004DF2134001F05AFE01214DF2144001F00B
:1024500055FE82214DF2154001F050FE01214DF252
:10246000164001F04BFECA214DF2174001F046FE26
:1024700002214DF2184001F041FE00214DF21940B9
:1024800001F03CFE02214DF21A4001F037FE00E05F
:10249000FFE201214DF21B4001F030FE02214DF21E
:1024A0001C4001F02BFE34214DF21D4001F026FEB0
:1024B00002214DF21E4001F021FE67214DF21F4026
:1024C00001F01CFE02214DF2204001F017FE842194
:1024D0004DF2214001F012FE02214DF2224001F0A6
:1024E0000DFEA4214DF2234001F008FE02214DF221
:1024F000244001F003FEB7214DF2254001F0FEFD1E
:1025000002214DF2264001F0F9FDCF214DF2274086
:1025100001F0F4FD02214DF2284001F0EFFDDE2133
:102520004DF2294001F0EAFD02214DF22A4001F06E
:10253000E5FDF2214DF22B4001F0E0FD02214DF2CC
:102540002C4001F0DBFDFE214DF22D4001F0D6FDC7
:1025500003214DF22E4001F0D1FD10214DF22F400C
:1025600001F0CCFD03214DF2304001F0C7FD3321D5
:102570004DF2314001F0C2FD03214DF2324001F035
:10258000BDFD6D214DF2334001F0B8FD00214FF447
:10259000554001F0B3FD33214DF2015001F0AEFD85
:1025A00000214DF2025001F0A9FD34214DF20350FB
:1025B00001F0A4FD00214DF2045001F09FFD3A21ED
:1025C0004DF2055001F09AFD00214DF2065001F048
:1025D00095FD4A214DF2075001F090FD00214DF28A
:1025E000085001F08BFD5C214DF2095001F086FD91
:1025F00000214DF20A5001F081FD81214DF20B5076
:1026000001F07CFD00214DF20C5001F077FDA62178
:102610004DF20D5001F072FD00214DF20E5001F00F
:102620006DFDE5214DF20F5001F068FD01214DF2E5
:10263000105001F063FD13214DF2115001F05EFDC9
:1026400001214DF2125001F059FD54214DF2135069
:1026500001F054FD01214DF2145001F04FFD822193
:102660004DF2155001F04AFD01214DF2165001F0D6
:1026700045FDCA214DF2175001F040FD02214DF2F7
:10268000185001F03BFD00214DF2195001F036FDCC
:1026900002214DF21A5001F031FD01214DF21B5083
:1026A00001F02CFD02214DF21C5001F027FD3421D8
:1026B0004DF21D5001F022FD02214DF21E5001F09D
:1026C0001DFD67214DF21F5001F018FD02214DF252
:1026D000205001F013FD84214DF2215001F00EFD38
:1026E00002214DF2225001F009FDA4214DF22350A8
:1026F00001F004FD02214DF2245001F0FFFCB7214E
:102700004DF2255001F0FAFC02214DF2265001F065
:10271000F5FCCF214DF2275001F0F0FC02214DF2E3
:10272000285001F0EBFCDE214DF2295001F0E6FCCF
:1027300002214DF22A5001F0E1FCF2214DF22B5022
:1027400001F0DCFC02214DF22C5001F0D7FCFE21FF
:102750004DF22D5001F0D2FC03214DF22E5001F02C
:10276000CDFC10214DF22F5001F0C8FC03214DF299
:10277000305001F0C3FC33214DF2315001F0BEFC6A
:1027800003214DF2325001F0B9FC6D214DF233506E
:1027900001F0B4FC00214FF4564001F0AFFC3321AE
:1027A0004DF2016001F0AAFC00214DF2026001F03F
:1027B000A5FC34214DF2036001F0A0FC00214DF294
:1027C000046001F09BFC3A214DF2056001F096FC9B
:1027D00000214DF2066001F091FC4A214DF20760A4
:1027E00001F08CFC00214DF2086001F087FC5C21B7
:1027F0004DF2096001F082FC00214DF20A6001F007
:102800007DFC81214DF20B6001F078FC00214DF23E
:102810000C6001F073FCA6214DF20D6001F06EFC1E
:1028200000214DF20E6001F069FCE5214DF20F60D0
:1028300001F064FC01214DF2106001F05FFC1321F6
:102840004DF2116001F05AFC01214DF2126001F0CD
:1028500055FC54214DF2136001F050FC01214DF262
:10286000146001F04BFC82214DF2156001F046FC32
:1028700001214DF2166001F041FCCA214DF21760B2
:1028800001F03CFC02214DF2186001F037FC002100
:102890004DF2196001F032FC02214DF21A6001F094
:1028A0002DFC01214DF21B6001F028FC02214DF2AC
:1028B0001C6001F023FC34214DF21D6001F01EFC70
:1028C00002214DF21E6001F019FC67214DF21F60DC
:1028D00001F014FC02214DF2206001F00FFC842174
:1028E0004DF2216001F00AFC02214DF2226001F05C
:1028F00005FCA4214DF2236001F000FC02214DF201
:10290000246001F0FBFBB7214DF2256001F0F6FBDE
:1029100002214DF2266001F0F1FBCF214DF227603C
:1029200001F0ECFB02214DF2286001F0E7FBDE2113
:102930004DF2296001F0E2FB02214DF22A6001F024
:10294000DDFBF2214DF22B6001F0D8FB02214DF2AC
:102950002C6001F0D3FBFE214DF22D6001F0CEFB87
:1029600003214DF22E6001F0C9FB10214DF22F60C2
:1029700001F0C4FB03214DF2306001F0BFFB3321B5
:102980004DF2316001F0BAFB03214DF2326001F0EB
:10299000B5FB6D214DF2336001F0B0FB55211846B7
:1029A00001F0ACFBAA21284601F0A8FB52213046D9
:1029B00001F0A4FB0821384601F0A0FB00214846A5
:1029C00001F09CFBCC21584601F098FB00214BF212
:1029D000011001F093FB0521504601F08FFB70219F
:1029E0004FF4374001F08AFB70214BF2017001F087
:1029F00085FB01214FF4384001F080FB03214BF6A9
:102A0000010001F07BFB03214BF6020001F076FB95
:102A100003214BF6030001F071FB02214FF43C400F
:102A200001F06CFB00214BF6014001F067FB002137
:102A30004BF6024001F062FBD0214FF4494001F017
:102A40005DFB02214CF6011001F058FB50214CF6C1
:102A5000021001F053FB50214CF6031001F04EFB25
:102A600050214CF6041001F049FB00214FF4545062
:102A700001F044FB55214FF4685001F03FFB4FF447
:102A800088502080782002F08BF94FF42450208069
:102A9000FEE3A0F513414FF4E06940F2022A4FF43F
:102AA000274B253924D040F20777C91E7ED04FF43A
:102AB000887B08317BD011397AD0A0F5A84108393C
:102AC00077D0A0F5A8514FF4407B053972D0B1F50D
:102AD000204170D0B1F580516ED0A0F58A413139D6
:102AE0006BD0091F6AD0A0F5C851633967D0CFE712
:102AF00047F6F001E52001F001FB3146012001F02D
:102B0000FDFA4946022001F0F9FA41F230010320B2
:102B100001F0F4FA0021042001F0F0FA51460820F7
:102B200001F0ECFA0021092001F0E8FA00210A2066
:102B300001F0E4FA00210C2001F0E0FA00210D2060
:102B400001F0DCFA00210F2001F0D8FA002110205A
:102B500001F0D4FA0721112001F0D0FA002112204F
:102B600001F0CCFA0021132001F0C8FA002107205F
:102B700001F0C4FA41F29061102001F0BFFA40F276
:102B80002721112001F0BAFA9D21122001F0B6FA96
:102B90004FF4C851132001F0B1FA2521292001F08A
:102BA000ADFA0D212B2001F0A9FA09E077E033E11D
:102BB000D8E1AEE24AE3FDE3FDE3FDE3FDE3FDE33F
:102BC0000721302001F09AFA40F20331312001F060
:102BD00095FA0321322001F091FA40F206213520C6
:102BE00001F08CFA0821362001F088FA40F2064103
:102BF000372001F083FA4FF44171382001F07EFA5A
:102C00000721392001F07AFA40F202613C2001F0FC
:102C100075FA08213D2001F071FA0021502001F0E1
:102C20006DFAEF21512001F069FA0021522001F0E4
:102C300065FA40F23F11532001F060FA59466020D6
:102C400001F05CFA0121612001F058FA00216A20AC
:102C500001F054FA0021802001F050FA0021812077
:102C600001F04CFA0021822001F048FA0021832073
:102C700001F044FA0021842001F040FA002185206F
:102C800001F03CFA1021902001F038FA4FF4C061B5
:102C9000922001F033FA40F233110720FDE341F2B4
:102CA0008F01EC2001F02AFA41F23421EF2001F0EB
:102CB00025FA3146012001F021FA4946022001F0AF
:102CC0001DFA41F23001032001F018FA002104201E
:102CD00001F014FA5146082001F010FA00210920F1
:102CE00001F00CFA00210A2001F008FA01210C2061
:102CF00001F004FA00210D2001F000FA00210F205C
:102D000001F0FCF90021102001F0F8F90721112051
:102D100001F0F4F90021122001F0F0F90021132054
:102D200001F0ECF90121072001F0E8F9322002F06E
:102D30001BF841F29041102001F0E0F940F2272108
:102D4000112001F0DBF9322002F00EF88A21122066
:102D500001F0D4F9322002F007F84FF4D0511320DB
:102D600001F0CCF90621292001F0C8F90D212B2012
:102D700001F0C4F9322001F0F7FF0021202001F01A
:102D8000BDF90021212001F0B9F9322001F0ECFF5A
:102D90000021302001F0B2F940F20461312001F04D
:102DA000ADF940F20531322001F0A8F900213520BB
:102DB00001F0A4F940F60941362001F09FF94FF4E3
:102DC0000171372001F09AF940F20131382001F009
:102DD00095F93946392001F091F900213C2001F0A4
:102DE0008DF940F60A213D2001F088F9322001F0EA
:102DF000BBFF0021502001F081F9EF21512001F0AB
:102E00007DF90021522001F079F940F23F11532061
:102E100001F074F9594651E10021084601F06EF9BC
:102E20003146012001F06AF94946022001F066F9B5
:102E300041F23001032001F061F90021042001F08A
:102E40005DF95146082001F059F90021092001F0EF
:102E500055F900210A2001F051F901210C2001F05F
:102E60004DF900210D2001F049F900210F2001F05A
:102E700045F9322001F078FF40F20111072001F0FE
:102E80003DF9322001F070FF4FF48651102001F01F
:102E900035F90721112001F031F95B46594612201E
:102EA00001F02CF94FF43061132001F027F90021D3
:102EB000292001F023F944F210012B2001F01EF922
:102EC0000021502001F01AF9EF21512001F016F9EC
:102ED0000021522001F012F940F23F11532001F07D
:102EE0000DF94FF41C51602001F008F90121612017
:102EF00001F004F900216A2001F000F9002180208E
:102F000001F0FCF80021812001F0F8F80021822076
:102F100001F0F4F80021832001F0F0F80021842072
:102F200001F0ECF80021852001F0E8F81021902054
:102F300001F0E4F80021922001F0E0F80121932053
:102F400001F0DCF81946952001F0D8F8002197200F
:102F500001F0D4F80021982001F0D0F840F273116C
:102F6000072085E341F21401E72001F0C7F831465C
:102F7000012001F0C3F84FF40071022001F0BEF807
:102F800041F23801032001F0B9F85146082001F060
:102F9000B5F80021092001F0B1F800210A2001F064
:102FA000ADF800210C2001F0A9F800210D2001F05E
:102FB000A5F800210F2001F0A1F80021102001F058
:102FC0009DF80721112001F099F80021122001F04D
:102FD00095F80021132001F091F8C82001F0C4FEFB
:102FE00041F29061102001F089F840F22721112070
:102FF00001F084F8322001F0B7FE0C21122001F01C
:103000007DF8322001F0B0FE4FF40061132001F092
:1030100075F81121292001F071F80B212B2001F006
:103020006DF8322001F0A0FE0021202001F066F8AA
:1030300040F23F131946212001F060F800213020B2
:1030400001F05CF84FF483742146312001F056F80A
:103050000021322001F052F84FF40171352001F0C7
:103060004DF841F20A61362001F048F83946372020
:1030700001F044F82146382001F040F83946392063
:1030800001F03CF840F202413C2001F037F840F6F4
:103090000F413D2001F032F80021502001F02EF8C0
:1030A000EF21512001F02AF80021522001F026F8EA
:1030B0001946532001F022F84FF41C51602001F012
:1030C0001DF80121612001F019F800216A2001F0AA
:1030D00015F80021802001F011F80021812001F075
:1030E0000DF80021822001F009F80021832001F071
:1030F00005F80021842001F001F80021852000F06E
:10310000FDFF1021902000F0F9FF4FF4C0619220E4
:10311000FDE33146012000F0F1FF4946022000F0B6
:10312000EDFF41F23001032000F0E8FF0021042010
:1031300000F0E4FF40F20721082000F0DFFF00214B
:10314000092000F0DBFF00210A2000F0D7FF00215A
:103150000C2000F0D3FF00210D2000F0CFFF002154
:103160000F2000F0CBFF142001F0FEFD41F2B06112
:10317000102000F0C3FF0121112000F0BFFF01214A
:10318000172000F0BBFF4FF49C71122000F0B6FF37
:103190004FF40061132000F0B1FF0921292000F055
:1031A000ADFF09212A2000F0A9FF0021A42000F092
:1031B000A5FF0021502000F0A1FFEF21512000F0D9
:1031C0009DFF0021522000F099FF40F23F11532053
:1031D00000F094FF4FF41C51602000F08FFF01219C
:1031E000612000F08BFF00216A2000F087FF0021A2
:1031F000802000F083FF0021812000F07FFF00216C
:10320000822000F07BFF0021832000F077FF002167
:10321000842000F073FF0021852000F06FFF132150
:10322000902000F06BFF0021922000F067FF032147
:10323000932000F063FF5946952000F05FFF40F2B5
:103240007311072000F05AFF322010E100210720FF
:1032500000F054FF322001F087FD4FF48E711220F0
:1032600000F04CFF0121A42000F048FF0F210820AE
:1032700000F044FF08210A2000F040FF08210D2043
:1032800000F03CFF3946302000F038FF072100E015
:103290006FE3312000F032FF40F20361322000F092
:1032A0002DFF4C464946332000F028FF514634207C
:1032B00000F024FF0221352000F020FF41F60F71BD
:1032C000362000F01BFF3946372000F017FF0021A1
:1032D000382000F013FF0021392000F00FFF39469D
:1032E0003A2000F00BFF00213B2000F007FF0721F0
:1032F0003C2000F003FF00213D2000F0FFFE3220C3
:1033000001F032FD0121072000F0F8FE0121172015
:1033100000F0F4FE322001F027FD4FF4BD511020E3
:1033200000F0ECFE40F21721112000F0E7FE4FF410
:103330008F71122000F0E2FE4FF47061132000F054
:10334000DDFE00212A2000F0D9FE0A21292000F00C
:10335000D5FE4FF49F71122000F0D0FE00215020C6
:1033600000F0CCFEEF21512000F0C8FE00215220D9
:1033700000F0C4FE40F23F11532000F0BFFE4FF4B6
:103380001C51602000F0BAFE0121612000F0B6FE61
:1033900000216A2000F0B2FE0021802000F0AEFE85
:1033A0000021812000F0AAFE0021822000F0A6FE6C
:1033B000002104E05EE05CE125E2DBE282E38320C1
:1033C00000F09CFE0021842000F098FE0021852062
:1033D00000F094FE1321902000F090FE59469220B8
:1033E00000F08CFE0521932000F088FE002195203E
:1033F00000F084FE0021972000F080FE002198203C
:1034000000F07CFE3146012000F078FE21460220CB
:1034100000F074FE41F23801032000F06FFE00213D
:10342000042000F06BFE00210C2000F067FE00215C
:103430000F2000F063FE0021202000F05FFE00213D
:10344000212000F05BFE2121072000F057FE142010
:1034500001F08AFC6121072000F050FE142001F0E9
:1034600083FC40F27311072000F048FE142001F0A5
:103470007BFCA1E30021084600F040FE0021084645
:1034800000F03CFE0021084600F038FE002108460E
:1034900000F034FE0121A42000E0E5E000F02EFE63
:1034A000142001F061FC4FF41C542146602000F010
:1034B00025FE55465146082000F020FE4FF40571C8
:1034C000302000F01BFE43F21571312000F016FE93
:1034D00040F20461322000F011FE40F61661332004
:1034E00000F00CFE42F21121342000F007FE4FF4F0
:1034F000A851352000F002FE48F20751362000F0B6
:10350000FDFD41F20741372000F0F8FD41F2034193
:10351000382000F0F3FD2021392000F0EFFD1A21C2
:10352000902000F0EBFD0021102000F0E7FD0721C6
:10353000112000F0E3FD0021122000F0DFFD00214A
:10354000132000F0DBFD142001F00EFC4FF4E661C7
:10355000102000F0D3FD40F23711112000F0CEFD15
:10356000142001F001FC4FF4DC71122000F0C6FDC4
:10357000142001F0F9FB4FF47061132000F0BEFD40
:1035800080212A2000F0BAFD4821292000F0B6FD54
:10359000142001F0E9FB3146012000F0AFFD49465F
:1035A000022000F0ABFD41F23801032000F0A6FD3F
:1035B0002946082000F0A2FD00210A2000F09EFD0F
:1035C00000210C2000F09AFD00210D2000F096FD56
:1035D00030210E2000F092FD0021502000F08EFDE1
:1035E000EF21512000F08AFD0021522000F086FDDD
:1035F00040F23F11532000F081FD2146602000F091
:103600007DFD0121612000F079FD00216A2000F09C
:1036100075FD1121902000F071FD4FF4C0619220E2
:1036200000F06CFD40F20241932000F067FD0221A2
:10363000942000F063FD142001F096FB0121072087
:1036400000F05CFD142001F08FFB6121072000F0E9
:1036500055FD40F27311072000F050FD002120209D
:1036600000F04CFD0021212000F048FD2221002027
:103670007DE10021084600F041FD0021084600F0F0
:103680003DFD142001F070FB0021084600F036FDDE
:103690000021084600F032FD0021084600F02EFD12
:1036A0000021084600F02AFD0121A42000F026FD9B
:1036B000142001F059FB4FF41C51602000F01EFD56
:1036C00040F60601082000F019FD40F20373194688
:1036D000302000F013FD0121312000F00FFD042106
:1036E000322000F00BFD4FF48171332000F006FD15
:1036F0005C465946342000F001FD40F203113520AC
:1037000000F0FCFC1F21362000F0F8FC19463720A1
:1037100000F0F4FC0121382000F0F0FC04213920F5
:1037200000F0ECFC1521902000F0E8FC4FF48261E1
:10373000102000F0E3FC40F24721112000F0DEFCF5
:103740004FF4DE71122000F0D9FC4FF460611320B9
:1037500000F0D4FC782001F007FB3146012000F096
:10376000CDFC4FF40071022000F0C8FC41F23001A2
:10377000032000F0C3FC08210A2000F0BFFC002158
:103780000C2000F0BBFC20210E2000F0B7FC002133
:103790000F2000F0B3FC0021202000F0AFFC00213E
:1037A000212000F0ABFC3D212A2000F0A7FC1420D2
:1037B00001F0DAFA2D21292000F0A0FC0021502090
:1037C00000F09CFC4DF2EF01512000F097FC00212D
:1037D000522000F093FC40F23F11532000F08EFC89
:1037E0000021612000F08AFC00216A2000F086FCA4
:1037F0002146922000F082FC0521932000F07EFCFF
:103800003146FFF7ADBB0121002000F077FC0A2014
:1038100001F0AAFA41F22861102000F06FFC0E219D
:10382000122000F06BFC40F63921132000F066FCFA
:103830000A2001F099FA4021112000F05FFC50218C
:10384000152000F05BFC0A2001F08EFA1E211220E8
:1038500000F054FC0A2001F087FA4FF4B151102017
:1038600000F04CFC42F63921132000F047FC0A20FE
:1038700001F07AFA3146012000F040FC594602205E
:1038800000F03CFC41F23801032000F037FC5146C7
:10389000082000F033FC08210A2000F02FFC002152
:1038A000302000F02BFC40F20241312000F026FCD9
:1038B0004FF48371322000F021FC40F20351332099
:1038C00000F01CFC4FF48271342000F017FC40F231
:1038D0000131352000F012FC3946362000F00EFC94
:1038E00040F20531372000F009FC4FF40271382016
:1038F00000F004FC40F60B71392000F0FFFB0221C0
:10390000412000F0FBFB4FF41C51602000E0D4E0AC
:1039100000F0F4FB0121612000F0F0FB4FF4047192
:10392000902000F0EBFB4FF48571922000F0E6FB55
:103930000421932000F0E2FB3146A02000F0DEFBE2
:103940000121072000F0DAFB2121072000F0D6FB3F
:103950002321072000F0D2FB3321072000F0CEFB0B
:1039600040F23311072000F0C9FB0021A02000F035
:10397000C5FB21E13021152000F0C0FB10219A2069
:1039800000F0BCFB2021112000F0B8FB43F22841DD
:10399000102000F0B3FB0221122000F0AFFB41F237
:1039A0003801132000F0AAFB282001F0DDF91221D4
:1039B000084600F0A3FB282001F0D6F943F220418D
:1039C000102000F09BFB43F23801132000F096FB1F
:1039D000462001F0C9F90021302000F08FFB40F2B1
:1039E0000241312000F08AFB40F20731322000F022
:1039F00085FB4FF44171332000F080FB042134201B
:103A000000F07CFB40F20141352000F077FB3946A5
:103A1000362000F073FB40F20531372000F06EFBDA
:103A20004FF4C2631946382000F068FB194639206C
:103A300000F064FB3146012000F060FB5946022093
:103A400000F05CFB41F23001032000F057FB40F630
:103A50000801082000F052FB08210A2000F04EFB6C
:103A60004FF41C51602000F049FB0121612000F05F
:103A700045FB4FF49F71902000F040FB31469220AF
:103A800000F03CFB3146932000F038FB4FF44051EE
:103A9000A02000F033FB1021A32000F02FFB012118
:103AA000072000F02BFB2121072000F027FB23211A
:103AB000072000F023FB3321072000F01FFB40F21A
:103AC00033119EE6E22020801D20288002202880DD
:103AD00004202880642001F063F9E0202080012088
:103AE00028800A2001F040F9E0202080032028806F
:103AF0000C2001F039F9012020800A2001F034F96E
:103B0000E62020802F202880FF2028802880B020D9
:103B1000208020202880002028800320288040F258
:103B20001F3028800120288040F2DF1028800020EC
:103B30002880B42020800420288040F21F40288064
:103B4000002028802E20288000202880288028809F
:103B50002880B6202080022028804FF4037028801F
:103B60000020288017202880152028800020288009
:103B70002880F02020800320288029202080D02049
:103B8000208000202880BE20208005202880FE2064
:103B90002880012028800020288028802880B820C4
:103BA00020800320288001202880BA202080012046
:103BB0002880642000F02EF80020FCF7D9FF05498A
:103BC0000120C1F880014046FCF79CFF1FB0BDE812
:103BD000F08F0000008021420346012000E058439E
:103BE000491EC9B2FBD27047034808B50088ADF83A
:103BF0000000BDF8000008BD0008006C044910B5C5
:103C00000880052001F0CCF8BDE81040FFF7ECBFBC
:103C1000FE07006C0C4A10B5BE211180941C0521D2
:103C2000218003F03AFA4FF06632084B03F048FA6D
:103C300003F006FA208001202080FF202080002051
:103C40002080208010BD0000FE07006C66660440E6
:103C5000F0B5674E00233146B279898846F60407ED
:103C600041F66314012A01D02AB11DE0B9421BD0EC
:103C7000A14202D118E0A14216D1082814D2DFE8EF
:103C800000F00406080A0C0E101206200CE00720B3
:103C90000AE0042008E0052006E0012004E00020FE
:103CA00002E0032000E00220A1F5134C45F210329F
:103CB00045F21055BCF1410C07D0B94205D09142F4
:103CC00003D0A94201D0A14275D1082812D2DFE861
:103CD00000F0110406080A0C0E1080230AE04023AD
:103CE00008E0C02306E0202304E0602302E0A023D4
:103CF00000E0E023A94202D14FF4585000E0362002
:103D0000914205D0A94203D0A14201D043F008035B
:103D1000B94201D143F00203194600F0EFF9B2882D
:103D2000A2420AD098063088718802D5884202D310
:103D300003E0884201D9318070802E48811CAA425C
:103D40007289028021D100230B80531C0380002341
:103D50000B80931C038033885B1E1C0A0C80D21CD2
:103D60000280DAB20A80B289028000230B80531CE1
:103D7000038000230B80931C038073885B1E1C0A46
:103D80000C80D21C0280D8B212E000220A800A8085
:103D90003288521E130A0B80D2B20A80B289028086
:103DA0000020088008807088401E020A0A80C0B285
:103DB0000880F0BDFFE7082812D2DFE800F0040613
:103DC00008110A0C0E1030230AE0102308E020230B
:103DD00006E0382304E0282302E0182300E008234B
:103DE000BDE8F040032043F4805100F087B90000A3
:103DF000E0000020FE07006C2DE9F04F4E4F0B460F
:103E00003A46BD880C0ADFF834B191895289A5F58C
:103E100013464FEA102C0BF1020A413E1DD0A5F5C6
:103E2000A646103E19D03E46BE4696F80690368805
:103E3000A5F5D047A6EB0008A8F10108043F17D06C
:103E4000A5F5C857633F28D0A5F5AA477646103F89
:103E500051D0B9F1010F63D064E0ABF800205246B5
:103E6000AAF800C0C0B2AAF80000ABF800100FE03A
:103E7000B9F1010F01D11FFA88F0ABF80020050A53
:103E80005246AAF80050C0B2AAF80000ABF80010E1
:103E90001480D8B21080BDE8F08FB9F1000F1BD0AC
:103EA000ABF800205246AAF800C0C0B2AAF8000041
:103EB000761E300AAAF80000F0B21080ABF80010AD
:103EC00011461480D8B21080BEF80200401E020ACB
:103ED0000A80C0B20880DEE71FFA88F0ABF8002045
:103EE00000265246AAF80060AAF80060060AAAF85E
:103EF0000060C0B2E1E7ABF80020AAF800C0521C95
:103F0000ABF80020C0B2AAF80000ABF80010AAF885
:103F10000040491CABF80010D8B2AAF80000BAE77C
:103F20001FFA88F00146104600F0E8F8B089BDE8B5
:103F3000F04F194600F0E2B8E0000020FE07006CE8
:103F40002DE9F84F82461F460C468B46580700D095
:103F5000012000EBD70079084843203AC0B202F0B4
:103F6000FF090026009041E00C2F10D0102F12D036
:103F7000182F3ED1204909EBC90001EB80004FF01A
:103F80000008855D28060AD51C4802880BE009EB6D
:103F900049001B49F1E71B4901EB0910EFE70A98BB
:103FA00028B91648428821465046FCF77BFE680631
:103FB000050E1548641CA4B24088A04219D9A4EB90
:103FC0000B00B84209D10AF101001FFA80FA0E482D
:103FD0005C46018851450CD906E008F1010000F06B
:103FE000FF08B8F1080FCDD3761CF6B200988642D0
:103FF000BAD3BDE8F88F0000207D00082000002023
:10400000BC72000830770008E00000202DE9F84F6E
:10401000044600F0FF0810190D46DDE90A761FFA84
:1040200080FA58191FFA80F94FF0000B11E054453F
:1040300002D3E819444685B24D450FD23B46294686
:104040002046CDF800B0FFF77BFF04EB570084B2A9
:10405000761C3278A2F120005E28E8D9BDE8F88FFE
:104060002DE9FF4F81B08046DDF83CA00E984FF05F
:1040700000091F4693464C460AF0010546082BE00E
:10408000381B401EC1B20A20FFF7A6FDBBFBF0F0B3
:104090000A21B0FBF1F201FB1200B9F1000F05D1CA
:1040A000791E8C4202DA48B14FF001093030C2B2B9
:1040B00006FB048080B200950E9B08E05FEA0A6070
:1040C00006FB04800E9B80B200950AD5302202992F
:1040D000FFF736FF641CE4B2BC42D1D305B0BDE8A3
:1040E000F08F2022F3E7000002480349008908808E
:1040F00070470000E0000020FE07006C024A1080BC
:10410000901C018070470000FE07006CFEE77047BE
:1041100030B50F23C27801780125F2B1144A126834
:1041200001F1E02102F4E062C2F5E062120AC2F19C
:104130000404D3404278A24084781C4014432201F6
:1041400081F80024007800F01F018D4040098000B4
:1041500000F1E020C0F8005130BD01F01F008540A3
:104160004809800000F1E020C0F8805130BD000017
:104170000CED00E002490843024908607047000066
:104180000000FA050CED00E0044A0029516901D055
:10419000014300E08143516170470000001002407C
:1041A000044A0029D16901D0014300E08143D16173
:1041B0007047000000100240044A0029916901D0B4
:1041C000014300E08143916170470000001002400C
:1041D00030B5204A5168204B11F00C0103D004295E
:1041E00001D0082901D0036012E05168536801F43E
:1041F00070114FF0020413F4803F04EB914102D0A0
:1042000053689B0301D5154B00E0134B59430160E4
:1042100051680F2303EA1111114B5C5C0168E14006
:1042200041605468072505EA14241C5D21FA04F452
:104230008460546805EAD4241B5DD940C16052688B
:10424000032303EA9232064B1B1F9A5CB1FBF2F187
:10425000016130BD0010024000127A0000093D00EB
:10426000520000200CB500222648009201920168FD
:1042700041F4803101604FF4A063016801F4003122
:1042800001910099491C0091019911B90099994235
:10429000F3D10168890333D5012101911A490A68D4
:1042A00042F010020A600A6822F003020A600A68FB
:1042B00042F002020A604168416041684160416821
:1042C00041F480614160416821F47C1141604168A2
:1042D00041F4E8114160016841F0807101600168BA
:1042E0008901FCD5416821F003014160416841F03A
:1042F000020141604168C1F381010229FAD10CBD7C
:1043000001920CBD00100240002002404FF0E0215D
:104310000428086903D020F004000861704740F0C9
:104320000400FAE710B502F0D7FA012803D0BDE87F
:10433000104001F0C5BF10BD0F4810B5016841F035
:104340000101016041680D4A1140416001680C4A59
:1043500011400160016821F480210160416821F46D
:10436000FE0141604FF41F018160FFF77BFF0549AB
:104370004FF00060086010BD001002400000FFF820
:10438000FFFFF6FE08ED00E010B50A4C01212046C3
:1043900000F006F9012807D107490A684868521C4D
:1043A00040F100000A6048602046BDE8104001214D
:1043B00000F0DCB800040040180000207FB50D4676
:1043C000044601210220FFF7EBFEADF80440ADF8F2
:1043D000005000240F4DADF80640ADF8024069468C
:1043E000284600F00DFA01221146284600F0E4F8B4
:1043F0001D208DF80C0001218DF80D108DF80E4058
:104400008DF80F1003A8FFF783FE0121284600F066
:10441000B0F87FBD0004004030B50D46044689B0B9
:1044200001210220FFF7BCFE01211120FFF7C4FE8D
:1044300001212848FCF72EFB4FF47072ADF81C20C8
:1044400018228DF81F2003208DF81E0007A922488E
:10445000FCF7D2FAADF81440ADF8105000241F4D0F
:10446000ADF81640ADF8124004A9284600F0C8F98E
:104470007021ADF800100120ADF80200ADF8084041
:104480006946284600F0E6F86946284600F09CF8A0
:104490006946284600F028F96946284600F068F980
:1044A0000821284600F016F90821284600F0CCF82B
:1044B0000821284600F056F90821284600F08AF91C
:1044C0000121284600F05FF80121284600F051F84C
:1044D00009B030BD000C1A0000100140000400407B
:1044E00030B50D46044689B001210420FFF758FE7F
:1044F00001210820FFF760FE4FF48072ADF81C2008
:1045000018228DF81F2003208DF81E0007A91548DA
:10451000FCF772FAADF80440ADF800500024124DDB
:10452000ADF80640ADF802406946284600F068F94B
:104530007021ADF80C100120ADF80E00ADF814405C
:1045400003A9284600F0D0F80121284600F01BF806
:104550000821284600F006F90121284600F009F854
:1045600009B030BD000C014000080040C943018281
:1045700070470029018802D041F0010101E021F0DB
:10458000010101807047002930F8441F02D041F436
:10459000004101E0C1F30E0101807047808C70473B
:1045A00002460020138A92890B4202EA010202D0DD
:1045B000002A00D001207047002A828901D00A43D6
:1045C00000E08A438281704730B5028C22F00102FC
:1045D0000284028C8388048B22F0020224F073058B
:1045E0000C882C430D8915434A882A43114DA84253
:1045F0000BD0114DA84208D0104DA84205D0104D47
:10460000A84202D00F4DA8420DD122F008054A89D8
:1046100023F440732A4322F004058A882A438D89B3
:104620001D43CB892B4383800483C9888186028400
:1046300030BD0000002C014000340140004001402A
:104640000044014000480140028B22F008020A4366
:104650000283704770B5028C22F010020284028C33
:104660008388048B0D8824F4E6464FF6FF7404EA31
:10467000052535430E8922F0200204EA061616436A
:104680004A8804EA02123243104EB04202D0104E61
:10469000B04215D122F080064A8923F4406304EA2F
:1046A0000212324322F040068A8804EA02123243A0
:1046B0008E8904EA86061E43CB8904EA83033343CA
:1046C00083800583C9880187028470BD002C014066
:1046D00000340140028B4FF6FF7322F4006203EABC
:1046E000012111430183704770B5028C22F480725E
:1046F0000284028C8388848B0D8824F07304254304
:104700000E894FF6FF7422F4007204EA062616435F
:104710004A8804EA02223243104EB04202D0104EC0
:10472000B04215D122F400664A8923F4405304EACA
:104730000222324322F480668A8804EA022232434B
:104740008E8904EA06161E43CB8904EA0313334319
:1047500083808583C9888187028470BD002C0140D5
:1047600000340140828B22F008020A4382837047A2
:1047700070B5028C22F480520284058C8288838B6F
:104780000C8823F4E6464FF6FF7303EA042434430F
:1047900025F400560D8903EA053535434E8803EAB2
:1047A00006362E43094DA84202D0094DA84205D134
:1047B00022F480458A8903EA82122A438280848314
:1047C000C988A0F84010068470BD0000002C01408C
:1047D00000340140828B4FF6FF7322F4006203EA3B
:1047E000012111438183704781867047018770479B
:1047F00081877047A0F8401070478184704700009F
:1048000030B502881B4C1C4DA0420DD0A8420BD0E5
:10481000B0F1804F08D0194B984205D0184B984200
:1048200002D0184B984203D122F070034A881A43F1
:10483000154B984206D0154B984203D022F4407392
:10484000CA881A4302808A8882850A880285A04223
:104850000AD0A84208D00E4A904205D00D4A904294
:1048600002D00D4A904201D1097A0186012181824C
:1048700030BD0000002C0140003401400004004025
:1048800000080040000C00400010004000140040F0
:1048900000400140004401400048014070B5154C03
:1048A00040F22551204600F069F800280ED020463D
:1048B00000F0F2F8104AC1B21088030406D4440490
:1048C0004FF0000306D50A2901D0138070BD40F4D3
:1048D00000400DE00D2909D0C0F30D04074D401C28
:1048E00080B229551080C728EFD870BD40F48040B1
:1048F000108070BD0038014044000020EE00002010
:1049000070B5154C40F22551204600F037F80028CC
:104910001CD0204600F0C0F8104CC5B2208800041E
:1049200014D42088B0F5167F11D20D4E00213046E8
:10493000FFF763FF208818B901213046FFF719FE01
:10494000208808490144401C20800D7070BD2088DB
:1049500040F40040208070BD004800404C00002022
:1049600000140040B60100200029818902D041F4E2
:10497000005101E021F400518181704770B501F0D0
:104980001F0501260024C1F3421306FA05F2012B8C
:104990000FD0022B0FD0838A4FEA112100881342D7
:1049A00006FA01F600EA060001D000B10124204613
:1049B00070BD8389F0E7038AEEE710B5C1F34213B7
:1049C00001F01F040121A140012B07D0022B07D0C9
:1049D0001430002A026805D00A4304E00C30F8E7DE
:1049E0001030F6E78A43026010BD000030B504467F
:1049F000008A85B00D464CF6FF710840E9880143F6
:104A00002182A0894EF6F3110840A9882A89114312
:104A10006A8902431143A181A08A4FF6FF410840F1
:104A2000A9890143A1826846FFF7D2FB1948844255
:104A300001D1039800E00298A189090400EBC001AC
:104A400001EB0010296801D5490000E08900B0FBA6
:104A5000F1F06422B0FBF2F109010B096FF01805C7
:104A60006B4300EB8300A3891D044FF0320306D58E
:104A700003EBC000B0FBF2F000F0070005E003EB31
:104A80000010B0FBF2F000F00F000843208105B0E9
:104A900030BD0000003801408088C0F30800704736
:104AA000FEE730380A2801D2012070470020704705
:104AB0007047000070B50F4CA0680F4DC0F5FA604C
:104AC00081B22846FFF790FE4FF4FA663146284639
:104AD000FFF78CFEA068C0F5FA6081B22846FFF7A8
:104AE00087FE31462846FFF785FE09202073002007
:104AF00070BD000028000020000400401CB540F2FA
:104B0000CF2140F2CF70FFF787FC0C480A210173D8
:104B1000002101704FF44871416081600020FFF76F
:104B2000C9FF06490220091FCDE9000100234022E8
:104B300003A1064801F0A4FE1CBD000028000020CF
:104B40006361725F7461736B00000000E94B0008E1
:104B50000548017B0B2904D0052101740170002058
:104B600070476FF001007047280000200548017B66
:104B70000B2904D0062101740170002070476FF0EA
:104B8000010070472800002070B50D4D4FF4FA6405
:104B900021462846FFF728FE21462846FFF726FE35
:104BA00021462846FFF724FE21462846FFF722FE2D
:104BB00004480A21017300214160084670BD0000CD
:104BC00000040040280000200648017B0B2906D085
:104BD00002214173002242600170104670476FF05D
:104BE0000100704728000020DFF82C91DFF82C81AD
:104BF0004FF4967B4FF4FA674FF47A7A002598F8D1
:104C00000000464600284ED0307807284AD2DFE818
:104C100000F04904080C2E4E65000020FFF74AFF03
:104C200040E00020FFF7B0FF3CE0706828B10020B2
:104C3000FFF7AAFF584601F06BF939464846FFF7DF
:104C4000D3FD544651464846FFF7D0FD3946484605
:104C5000FFF7CEFD21464846FFF7CCFD0920307313
:104C600040F2DC507060204601F052F9D9E77068DC
:104C7000341DC0F5FA6081B24846FFF7B5FD3946EC
:104C80004846FFF7B3FD2068C0F5FA6081B2484698
:104C9000FFF7AEFD39464846FFF7ACFD206870606F
:104CA0002068B0603570142001F032F9A7E7706811
:104CB00028B10020FFF768FF584601F029F9544653
:104CC00051464846FFF790FD39464846FFF78EFDAE
:104CD00039464846FFF78CFD214615E0706828B13B
:104CE0000020FFF751FF584601F012F939464846B7
:104CF000FFF77AFD544651464846FFF777FD2146B7
:104D00004846FFF775FD39464846FFF773FD746066
:104D1000204601F0FDF880E7000400402800002054
:104D200010B50420FFF7F2FA0C480D490D4A00684F
:104D3000B0FBF1F3B0FBF1F14FF47A704143137023
:104D4000012050804FF0E020026942F0020202612F
:104D50004161016941F00101016110BD04000020C1
:104D600040420F004000002070B5044601F0B4FD41
:104D700001280CD0094D6888844203D3B4FBF0F0BD
:104D800001F0C6F86888B4FBF0F100FB11444FF461
:104D90007A706043BDE8704000F002B84000002027
:104DA00070B54FF0E02500216C69094AAB691278B3
:104DB0005043AA699A42FCD002D2A3EB020302E05C
:104DC000A4EB02063344194413468142F1D370BD6B
:104DD000400000201CB500F067F840F2CF2140F2FF
:104DE000CF70FFF77DFB40F23A710848FFF700FDF6
:104DF00000F05AF806490320CDE9000100234022C3
:104E000004A1074801F03CFD1CBD00000008004063
:104E10003C0000206469735F7461736B00000000E4
:104E2000254E000800F08CF804464FF49678E0898F
:104E3000082832D000F088F8E081E0891E282CD2C2
:104E40000020FFF7C1FE642001F062F8154D40F22A
:104E5000D6612846FFF7CCFC4FF4FA77384601F0CC
:104E600057F800F071F8064640F29E712846FFF7A9
:104E7000BFFC384601F04CF800F066F8074640F2F7
:104E80003A712846FFF7B4FCBE424FF0000002D949
:104E9000FFF75EFE01E0FFF769FE404601F038F8DB
:104EA000C5E70000000800407FB501211020FFF792
:104EB00083F94FF40060ADF800002820184D8DF8FC
:104EC000030069462846FBF797FD2C15ADF8004016
:104ED00010228DF8032003228DF80220694628460F
:104EE000FBF78AFD21462846FBF707FE0121082033
:104EF000FFF756F94FF6FF70ADF808004720ADF800
:104F000004000020074CADF80A00ADF8060001A926
:104F10002046FFF775FC00212046FFF72AFB7FBDE6
:104F200000100140000C004004490A885206FCD5DC
:104F3000024AC1B2121D11807047000000380140C2
:104F4000004870472800002070B51E4D4FF4806463
:104F500021462846FBF7D3FD1420FFF721FF214609
:104F60002846FBF7CAFD184E00213046FFF745FCE6
:104F7000640021462846FBF7B9FD0028F9D001213D
:104F80003046FFF7F6FA21462846FBF7AFFD012829
:104F9000F9D000213046FFF7ECFA3046FFF7FEFA71
:104FA000044600213046FFF728FC204602F075F841
:104FB0004FF06632054B01F0EBFE02F041F880B293
:104FC00070BD000000100140000C004066664D40BE
:104FD0007CB5FFF7B5FF04464FF6FF70FBF792FD77
:104FE0003B494FF47840182508803AA0CDE900509D
:104FF0002B46C82214210F20FFF708F83AA0CDE96C
:10500000005032211823C8220846FEF7FFFF31A0C6
:10501000CDE900501823C8224B210F20FEF7F6FFE0
:10502000102535A0CDE900502B46C822782100205C
:10503000FEF7ECFF207B092806D0207B0A2805D04C
:10504000207B0B2804D00CE032A002E032A000E06C
:1050500033A0CDE900501023C8228C210020FEF798
:10506000D5FF607B012806D0607B022805D0607BDD
:10507000032804D00CE02CA002E02CA000E02DA01E
:10508000CDE900501023C8228C213E20FEF7BEFF40
:105090000026CDE90056626804238C216820FEF7C3
:1050A000DFFFE089082808D0CDE90056E289032314
:1050B0008C21A420FEF7D4FF7CBD20A0CDE90050B8
:1050C0001023C8228C21A420FEF7A0FF7CBD000085
:1050D000200000202A2A2A2A2A2A2A2A2A2A2A2A98
:1050E0002A2A2A2A2A2A2A0044595120504C415956
:1050F00020434152000000007374617475732020D6
:105100006D6F646520207370656564202064697329
:105110000000000052554E00574149540000000065
:105120004641554C54000000474F000053544F5027
:10513000000000004241434B000000004F46460083
:105140001CB54FF44070FFF715F8FFF7E9FD4FF479
:10515000E13000F001FDFBF733FE07490020CDE907
:10516000000103464FF4807204A1074801F088FB58
:1051700000F0C8FF00201CBD0000002073746172A5
:10518000745F7461736B0000415B00082DE9F041AE
:10519000184E0F460446F5683068001D00F02EFDDD
:1051A00038B9306890F82C1001208840316981436B
:1051B0003161601C07D137B13168BDE8F0410E485C
:1051C000091D00F053BD30682C44AC424460316886
:1051D00005D2306CBDE8F041091D00F02FBDF06B29
:1051E000091D00F02BFDB06A844200D2B462BDE814
:1051F000F081000064000020780900202DE9F041D2
:10520000054600F03FFD2D4EB068401CB060306890
:105210002B4F10B1706930B32BE03560B0680128B6
:1052200027D1002404EB840007EB800000F0F8FC99
:10523000641C202CF6D3234800F0F2FC21481430E3
:1052400000F0EEFC1F48283000F0EAFC1D483C301E
:1052500000F0E6FC1B48503000F0E2FC1948F06317
:105260001430306405E03068E96AC06A884200D8CA
:105270003560706A0121401C7062A864E86A326976
:1052800081401143316100EB800007EB8000291D54
:1052900000F0ECFC00F032FD706900280CD03068A2
:1052A000E96AC06A884207D207494FF08050086017
:1052B000BFF34F8FBFF36F8FBDE8F0816400002014
:1052C000A80600202809002004ED00E010B500F039
:1052D000D9FC0E4C2068A0B90D4800F0A1FC0C4888
:1052E000143000F09DFC0A48E06014302061002278
:1052F0001021052000F0FAFF206010B105A100F098
:10530000D3FDBDE8104000F0F9BC0000A80000206B
:105310008C090020546D72510000000070B5124ECF
:10532000124D1CE000F03AFF306820B1002401F07B
:1053300001FCA4B901E00124F9E700F0A3FCF06846
:10534000C468201D00F05AFCA868401EA860686868
:10535000401E686000F0D2FC204600F052F86868F9
:105360000028DFD170BD0000640900206400002027
:1053700030B4026C0B46002A0BD0C1681144C160E6
:105380004468A14201D30168C16030BC1846FBF7F4
:1053900015B930BC70472DE9F041856B17460446BE
:1053A0000026026C82B1C7B1E068FBF707F9E1683B
:1053B000206C091AE1602268914202D26168081AE1
:1053C000E060022F16D017E02068A8B9606801F0ED
:1053D0000BFB0646002060600EE0A068FBF7EEF8CD
:1053E000216CA0680844A0606168884204D32068EA
:1053F000A06001E005B16D1E6D1CA5633046BDE8DF
:10540000F08110B50446006B00F0AAFC2046BDE810
:10541000104000F0A5BC000010484FF4A041420726
:1054200006D0C01D0D4920F00700411AC1F5A0416A
:105430000B4A00230144C2E900030839103A21F065
:10544000070111604B600B600B1AC0E900139360F9
:105450004FF000405360D06070470000B409002056
:10546000CC000020074E4FF08054074DFFF756FF49
:1054700030680128FAD92C60BFF34F8FBFF36F8FCC
:10548000F4E70000A806002004ED00E02DE9F04755
:10549000DDE909840E461746824691009946089D2B
:1054A000A522206BFBF7CFF86FF00301206B01EB17
:1054B0008701084420F00707780705D040F22B3217
:1054C00019A11EA0FAF7FAFE00202218315C82F81A
:1054D0003410315C11B1401C1428F6D3002684F836
:1054E0004760202D00D31F25E562C4E91456201D16
:1054F00000F0A1FB04F1180000F09DFB2461C5F150
:1055000020006462A061A665E66584F860604A4692
:105510005146384600F002FB2060B8F1000F01D080
:10552000C8F80040BDE8F0872E2E5C4672656552D3
:10553000544F535C7461736B732E63004572726FCA
:10554000723A25732C25640D0A00000030B511490C
:1055500000E011460A688242FBD34B685C18844223
:1055600003D1406818444860084643681C189442B8
:1055700009D1084C103C2468A24209D052681A4450
:1055800042600A6812680260814200D0086030BD43
:105590000460F9E7CC00002070B5002441600B4D99
:1055A0000061914206D8D11A8269914206D2011D4A
:1055B000286907E09A4203D2994201D3012403E00B
:1055C000011DE86800F03AFB204670BDA8000020ED
:1055D00010B5044600F056FBA06B20B1002400F08B
:1055E0008DFB204610BD0124F9E700002DE9F341B1
:1055F00000980F460026846C2CB940F6CE1216A1F6
:105600001AA0FAF75BFEA06BE16B884205D340F667
:10561000CF1211A115A0FAF751FEA06BE16B8842E1
:105620000CD294F945503A4669462046FFF7B3FE3E
:105630000646681C05D06D1C84F845503046BDE810
:10564000FC81606A0028F9D004F1240001F026FAF8
:105650000028F3D00126F1E72E2E5C4672656552D4
:10566000544F535C71756575652E63004572726F9A
:10567000723A25732C25640D0A000000F8B5054622
:1056800014480E46C068C068C468201D00F0B6FA11
:10569000E069012817D1A0692B46411932462046FE
:1056A000FFF77AFF78B100200346014600902A46B2
:1056B000204601F025FB30B907494FF4027201F191
:1056C0001800FAF7FBFD616A01B02046BDE8F04022
:1056D00008470000A8000020646C000870B586B080
:1056E0002F4E53E00198002806DADDE90301029A03
:1056F00090470198002849DB039C606910B1201D88
:1057000000F07CFA05A800F0A7F8054601980A28E1
:105710003CD2DFE800F00505053B273805053B27AF
:105720000298A169034601442A462046FFF734FF48
:1057300000282BD0616A20468847E069012825D1DE
:10574000002000900298A1690023421819462046C3
:1057500001F0D6FAD0B940F2213212A117A0FAF71F
:10576000ADFD13E00298A06128B94FF44E720DA16F
:1057700012A0FAF7A3FDA0692B4641191A4620464C
:10578000FFF70AFF02E0204600F0EAFA00231A467B
:1057900001A9306800F0E6FD0028A3D106B070BD75
:1057A000A80000202E2E5C4672656552544F535C53
:1057B00074696D6572732E63000000004572726F2C
:1057C000723A25732C25640D0A000000F8B50D46C9
:1057D000064600F0E3FC684600F03EF804460098F8
:1057E00010B101F0A7F9F8BD1148ADB10169096820
:1057F000D9B10025311B2A46006800F067FB01F093
:1058000099F90028EFD10B494FF080500860BFF3A1
:105810004F8FBFF36F8FF8BDA642EBD801F08AF926
:1058200021463046FFF72AFFF8BD0125E2E70000D8
:10583000A800002004ED00E00648C16B096829B10A
:10584000C16BC968C9684968816270474FF0FF3110
:10585000FAE700006400002070B5054601F04AF840
:10586000064E0446B068844203D200F009F80120D5
:1058700000E0002028602046B46070BDA800002031
:10588000F8B5184E26E0C068C4680568201D00F011
:10589000B5F9616A20468847E06901281AD1A069F4
:1058A0002844A84206D924616060211DF06800F0F8
:1058B000C5F90FE000200346014600902A46204625
:1058C00001F01EFA30B9084940F2923201F1180095
:1058D000FAF7F4FCF06801680029D4D13169C6E90F
:1058E0000310F8BDA8000020646C00080848406858
:1058F000401C04D0F42207A111A0FAF7DFFC5020CD
:1059000080F31188BFF34F8FBFF36F8FFEE7000066
:10591000D40000202E2E5C4672656552544F535CB5
:10592000706F727461626C655C525644535C415294
:105930004D5F434D335C706F72742E630000000046
:105940004572726F723A25732C25640D0A000000AF
:10595000084CE068016839B1002139B10020FFF737
:1059600035FFFFF7BBFEF4E70121F6E7C0680068EA
:10597000F5E70000A80000202DE9F041044600F002
:1059800081F994F9455004F1240610E0A06C20B18F
:1059900000212046FFF72AFE04E0606A48B1304645
:1059A00001F07CF808B100F0E9FA6D1E6DB2002D2F
:1059B000ECDC4FF0FF3684F8456000F09FF900F012
:1059C00061F994F9445004F1100709E0206948B1E5
:1059D000384601F063F808B100F0D0FA6D1E6DB2E0
:1059E000002DF3DC84F84460BDE8F04100F086B996
:1059F0002DE9F0410546002600F0D0FB324F386813
:105A000008B9FFF709FDF86805424FD1002D4DD0C8
:105A1000083568070BD005F00700C0F10800054401
:105A2000680704D0BF2229A132A0FAF747FC002D55
:105A30003CD07868854239D823491031084604683B
:105A400001E0214604466068A84202D2206800288E
:105A5000F7D13868B846844228D00E6820680860BC
:105A600060680836401B10280ED96719780704D0E3
:105A7000EC2216A11FA0FAF721FC6068401B786099
:105A800038466560FFF762FD6168D8F80400424659
:105A9000401AC8F80400D8F80830984200D2906044
:105AA000D8F80C0001430020C4E9000101F042F8DD
:105AB000700705D04FF4967204A10EA0FAF7FEFB12
:105AC0003046BDE8F0810000BC0000202E2E5C4670
:105AD00072656552544F535C706F727461626C658D
